:040000006F10907D70
:1000040000000000000000009000002076020020A4
:10001400A9BDF9F5940000200000000000000000D4
:10002400960000209800002000000000000000005E
:100034009A000020000000009C0000200000000046
:100044009E000020A0000020A2000020A4000020A8
:10005400A6000020A8000020AA000020AC00002078
:10006400AE000020B0000020B2000020B400002048
:10007400F2020020B8000020BA000020BC000020DA
:10008400BE000020C0000020C2000020C4000020E8
:1000940001A001A001A001A001A001A001A001A054
:1000A40001A001A001A001A001A001A001A001A044
:1000B40001A001A001A001A001A001A001A001A034
:1000C40001A001A001A0B71700409306700523808A
:1000D400D704130780FA2380E7040100010003C654
:1000E400B7041376F60DA385C7042380070413769B
:1000F40005024DC203C6A700118A1DE22380D7045E
:100104002380E7040100010003C7A7001367470029
:100114002385E7009307004B01000100FD17EDFF65
:10012400B7170040930670052380D704130780FA9D
:100134002380E704010001007D892394A7000100C6
:10014400010001000100238007042380D7042380D9
:10015400E704010001000100010037270040930675
:100164001005A303D78023800704B71700401307A3
:1001740070052380E704130780FA2380E704010055
:10018400010003C7B70413670708A385E7042380A6
:10019400070482801376050441C603C6A700418A7A
:1001A4001DE22380D7042380E7040100010003C774
:1001B400A700136707012385E7009307007D01006B
:1001C4000100FD17EDFFB71700409306700523806B
:1001D400D704130780FA2380E70401000100137693
:1001E400F501136606042394C70001000100010011
:1001F4000100238007042380D704130660042380AE
:10020400E7046318C5000100010037270040894650
:1002140089BF01000100372700409306200591B7EC
:100224002380D7042380E7040100010003D787005B
:100234001367070C2394E7000DBF41118146014663
:100244008145114506C65922B717004013077005AA
:100254002380E704130780FA2380E70401000100E8
:1002640003C76704136717002383E7042380070485
:10027400B240410182808146014681451145B9223F
:10028400B7170040930670052380D704130780FA3C
:100294002380E704010001007D562396C7022380D2
:1002A400D7042380E7040100010003C76704136730
:1002B40017002383E7042380070401A0BD47330507
:1002C400F50201007D1575FD8280411122C426C20C
:1002D40006C6AA84014463179400B240224492449F
:1002E4004101828005041305803E4204C13F4180E0
:1002F400DDB7B7170040130700032388E7028547DB
:1003040023A2F18C73002030411106C6852DFDBF58
:100314002303048015472303E48001002302A480FF
:10032400828083076480E3CE07FE230304808280F7
:1003340083076480E3CE07FE0345448082808307FD
:100344006480E3CE07FE2302A4808280411126C488
:100354004AC24EC006C61377F50BAD47AA892E894B
:1003640095446306F70019456537653F8D444E850E
:100374004537FD59FD1463983401B240A244124933
:10038400824941018280135509011375F50F453FD8
:100394002209CDB7011126CC06CEB7040800513787
:1003A4001545BD37713769372AC6A53F324593775E
:1003B400150089EB136515001375F50FF240E2443F
:1003C40005618280FD14E9FC0145CDBF397126DC4D
:1003D4004ADA4ED852D656D45AD25ED006DE62CE0F
:1003E40066CCB7E700E07D5783AA070022C603AABC
:1003F400470023A0E71823A2E718B7170040130704
:1004040070052380E704130780FA2380E70483C779
:100414004704930B75FFB684E20793FBFB0F8546F5
:10042400AA892E8B328937240040E187015763FA69
:1004340076016308D5008946130700026313D500CB
:100444000157D98F93F7F70FB71C00402382FC04A0
:1004540011472303E4801305F00F5D3D094CD135AA
:10046400636D7C11B7050700DA9537870700795566
:1004740063F2E504B3879500636EF702370B080057
:10048400A94733EB65016399F90689E48144513D39
:1004940026850DA0DA850945553D05090345F9FF73
:1004A400FD14050B693D81C49377FB0FFDF7DD3522
:1004B40069FD7D55B7170040130770052380E704D5
:1004C400130780FA2380E70403C74704418B238280
:1004D400E704F250B7E700E023A0571123A2471125
:1004E400E25432445259C259325AA25A125B825BC4
:1004F400724CE24C21618280A5476395F9068569B7
:100504001309F00FB3069900B3742B01B694134981
:10051400F9FFB3749900856B33796901416B938753
:10052400F9FFB3F7270199E363FC340193D9490038
:10053400C147E3E637FF99BF0569C1697D19D9B79A
:100544001305800D63886901130500026384790132
:1005540013051008CA85DD3B353D21DD4E99B38472
:100564003441D9B7DA852D45D533CA94E30099F2DD
:1005740005097D3BA30FA9FED5BF9387F9FF93F728
:10058400F70F6361FC0C83C71C0413073008631F57
:10059400F70437070800636BEB04B3079B00B70647
:1005A400100063F5D704334BEB0089476393F906D6
:1005B4008980D549E38C04ECDA850945413B11096E
:1005C4000327C9FF91472320E48003076480E34E97
:1005D40007FE23033481FD17EDFBFD14110B81C4C9
:1005E4009377FB0FE9FF7D3371F5E1B5B717004051
:1005F40003C75704B70708001377070219E3B7873F
:1006040007007955E378FBEA33079B00E3FFE7F83B
:1006140055B58547E382F9F2DA852D45053B938983
:10062400F4FFE38504E6293393F7390091EB83263D
:1006340004800327090093074900E39AE6E43E890E
:10064400CE84F1BFB5476396F9001305900BC93109
:1006540035BDB1471305B00AE38BF9FE99476391A1
:10066400F904B7050800B365BB002D45C5318144C5
:100674008D4BA14975396396740183270480232027
:10068400F9008504E39834FF8327048013172B01B2
:10069400635507002312F900D5BB2322F900FDB3EB
:1006A4009D476399F90281451305B0044531BD4462
:1006B4002320090023220900FD599D3993F7740072
:1006C400CA9703C70700FD14398D2380A700E3965A
:1006D40034FF6DBBA1476392F9046D398144630D06
:1006E4000B008D479304C0036308FB0093040005CB
:1006F40063048B01930440041375C507E30895D87C
:100704001945393139390545213126850D390945D0
:100714003D314931E31C05D669BB91476399F90022
:1007240013056006F536F53E130590090DB7E38F02
:1007340009D4F154A9BB19CD91CD09CE8147338792
:10074400F500834607003307F50085072300D7002B
:10075400E317F6FE828019C991C909CA910583A7D6
:10076400C5FF11057D16232EF5FEC5BF828001C984
:1007740019C62A960505A30FB5FEE31DA6FE8280C1
:1007840081473307F5000307070019E33E8582809C
:100794008507C5BF01112E8626CAAA841315060132
:1007A4009305F004418122CC06CE32C6EF104059A5
:1007B4002A8401C53246A685BD3F2285F2406244A3
:1007C400D24405618280854715C18DC105C2814728
:1007D400B306F5003387F50083C606000347070018
:1007E4006398E6008507E315F6FE85473E8582801B
:1007F4008147EDBF9307F6FFBE952A966313C500A4
:100804008280FD1583C715000505A30FF5FEFDB70E
:10081400AA87014581CF09CE3E96850703C7F7FF16
:100824006317B700E39BC7FE0545828082800145BC
:1008340082807971973700009387077422D48043AC
:1008440006D626D24AD04ECE52CC56CA5AC85EC616
:1008540062C45DCC37C9C901814B173A0000130A41
:100864002A7697340000938464711309F937973A10
:100874000000938A2A6BB709C0A8370B40578357E7
:10088400240095E35C44639D0B0017370000232587
:10089400F76E032CC4002285EF10A057628499A838
:1008A40023A6FB00FDB783270A0082978386640191
:1008B4001C4463DB06063307F5406367E908973792
:1008C400000023A9076683552400034504009730DC
:1008D40000E0E780007B5C405844A9CF1444B697FD
:1008E4008386640163C5060063E33701DA971CC499
:1008F400A28B3A8449F4973700009387A7629C4BF4
:1009040009476378F706F917173700002324F762BD
:10091400B250225492540259F249624AD24A424B8A
:10092400B24B224C45618280E377F5F83387F94076
:100934002A9761B763970B009737000023AEE762ED
:1009440089BF23A6EB00B1B7D85009CF63DF0600F7
:100954003385A74083A70A016376F5009737000023
:1009640023AAA75CA28B404471B7E3F3A7FECE97FA
:10097400C5B79737000023AF075A59BF411122C4A6
:10098400173400001304045D1C4006C626C24AC086
:1009940091C782979737000023AE075A5C4091C3F2
:1009A40082971C406391071C9737000083C7977890
:1009B400858B9DC797370000A38E077617370000F5
:1009C40003477777954763FDE700EF0010379737C4
:1009D400000083C75776F5178A07A2979C4382972E
:1009E400173900001309C9788347C900918B99C34B
:1009F400EF1060281C4491C38297973400009384BD
:100A040064579840173600000346D65197370000C4
:100A140083C7475193961700BA9683D60600D5CA62
:100A24009737000083C7075063EFC70A9737000062
:100A3400238A074E1C40639807129737000083C728
:100A4400B76F91CF9737000083C7F76E89EB97375D
:100A54000000A383076E979001E0E780C0BD97373D
:100A640000009387E7559C43638F070EB707C0A820
:100A7400173700002320F74C6D3B9737000093870E
:100A8400E74FDC53EDC3173700001307A749184B92
:100A94009737000083C7D74F6367F70C17370000F9
:100AA40003477769954763E0E70C8347C900918B57
:100AB400DDEB90409736000083C6D64663CBD70A59
:100AC4002244B240924402494101173300E06700D6
:100AD4006338850793F7F70F973600002384F644AD
:100AE400E3E6C7F235BF86073E9783550700231018
:100AF400070097370000239D074697370000938728
:100B040027459C43173500000345C54113172500AD
:100B1400BA979C4382979737000083D76745173766
:100B240000000347274093C7F7FF7D8D93171700F5
:100B340098403E97835707005D8D2310A700973791
:100B4400000083C7273E91C7850717370000230B92
:100B5400F73C173700000347E73C9737000083C78B
:100B6400773CE375F7ECB2402244924402494101D8
:100B74008280139717003297035707006DF7850794
:100B840035BFAD6737C70040BD072326F7200F10D8
:100B94000000973700009387E738C84F83278726DC
:100BA400BD66BD0693C7F7FF99836A052326D72040
:100BB4005D8D82804111B7170040985F3AC6945FFB
:100BC4003247E39CE6FE324541018280828003275E
:100BD400851163000712411122C406C68347C5006C
:100BE4008345C5042A8493F7C70F2306F50083467B
:100BF40097000356C70013958601618563F1C50804
:100C0400635A05060345870093F6F607A304D70045
:100C1400054693E627006314C50093E617002306F0
:100C2400D4005C4389075CC3A30AB4000325041100
:100C34002E864C430905013683278411034654014B
:100C4400D44303D7C700B296118FD4C32396E700C9
:100C54008947A30DF400034744039737000083C773
:100C640007336378F7048347C40093E70701230637
:100C7400F40081A093E717002306F40075B7937678
:100C8400F60F635D050203458700854513E62700DB
:100C94006314B50013E617002306C400A30AD400A6
:100CA400A30407008547A30DF400832784119C4304
:100CB400DDF3B240224401454101828093E71700ED
:100CC4002306F400A30AD400A30407000325041197
:100CD4004C4309058D348327841103465401D443BE
:100CE40003D7C700B296118FD4C32396E7008D476C
:100CF4005DBF05458280973700009387E7419C4399
:100D0400411122C406C6858B2A84C5EF41651305AB
:100D140025F5973001E0E78040CF45C58347A5001E
:100D24002315F50083270412BDE72320A4122322F0
:100D3400A41285472310F40423200500834764018B
:100D440054412316F5000347D4002304E500054766
:100D5400A304E500173700001307873D184F1385D8
:100D6400170215811C437D151375F50F9CC25C4356
:100D7400DCC21C479CC65C47DCC61C4B9CCA5C4B53
:100D8400DCCA1C4F9CCE5C4FDCCE19CD9386060288
:100D940013070702C1BF8327441288C3835704047F
:100DA4002322A412850779B79737000083D7874594
:100DB4008507173700002317F744B2402244410146
:100DC40082808347C40023090400054593C7470074
:100DD4002306F400DDB78347850193F7E70FD5EFCA
:100DE40083479501DDEB034625018346C50009CA07
:100DF40083454503173700000347771963E7E50088
:100E040013F7060141CF014709C6C18A0357851B61
:100E140081C68356C51B369751C31307C7121735AE
:100E240000000355A512B335A70237460F00411140
:100E340013060624814622C426C206C67D54330501
:100E4400A702973002E0E780009B9737000083C732
:100E54007714B384A700973700009387273A03A732
:100E6400C7088327070963F387003E84184375FB8B
:100E7400973700009387C7149C4382978147636424
:100E8400A400B307A440B2402244B3B7970093C769
:100E9400170092443E854101828081473E858280CD
:100EA400797126D206D622D44AD04ECE52CC56CA16
:100EB4005AC85EC68347350303447513AA843E9417
:100EC4001374F40F9307400263F687001304B4FD10
:100ED4001374F40F03AA841383AAC413A38B841278
:100EE40022865285D685973002E0E780408B0589BB
:100EF40015E503CBD41201498149337B6403930B79
:100F040050024A865285D685973002E0E7802089D0
:100F1400058915C5639169031374F90F238B841232
:100F2400B250225492540259F249624AD24A424B74
:100F3400B24B456182808509E20993D9894105094B
:100F4400E31179FDE1BF832785090356E503797130
:100F540093D60701BD8EC206C182358E13577640E3
:100F640093575640898B058B5D8F93573640918BF1
:100F74005D8F93571640A18B5D8F93171600C18B1D
:100F84005D8F9317360093F707025D8F9317560012
:100F94009355860093F707041E065D8F1376F60FAC
:100FA400518F93D7554013D63540118A898BD18FF1
:100FB40013D67540D18F13D61540218AD18F13963D
:100FC4001500418AD18F1396350013760602D18F0E
:100FD40013965500137606049E05D18F93F5F50FED
:100FE400CD8FA20745465D8F3307C70222D42A84DA
:100FF40026D252CC56CA032A8413832AC4135AC84D
:1010040006D6369742074183935777401355574086
:101014000989858BC98F135537401189C98F135599
:1010240017402189C98F131517004189C98F1315DA
:10103400370013750502C98F1315570093558700A0
:10104400137505041E07C98F1377F70FD98F13D5AE
:10105400354013D755401189098B498F13D57540F5
:10106400498F13D515402189498F1395150041895E
:10107400498F1395350013750502498F1395550053
:10108400137505049E05498F93F5F50F4D8F2207BF
:10109400D98FB387C7024AD04ECE5EC662C4B69714
:1010A400C207C18313D7774013D557400989058BED
:1010B400498F13D537401189498F13D5174021899A
:1010C400498F139517004189498F1395370013757C
:1010D4000502498F1395570093D5870013750504AE
:1010E4009E07498F93F7F70FD98F13D5354013D740
:1010F40055401189098B498F13D57540498F13D5F4
:1011040015402189498F139515004189498F1395FD
:10111400350013750502498F1395550013750504A1
:101124009E05498F93F5F50F4D8F2207D98FB3870D
:10113400C702130650025285D685B697BD8E939486
:101144000601C18033F6C402137BF60F972002E038
:10115400E780E06405890DED8347D4120149814994
:10116400B3849702130C5002C1804A865285D685F7
:10117400972002E0E780A0620589937BF90F11C5EF
:1011840063863403850993F9F90F0509E31F89FD83
:10119400230B6413B250225492540259F249624A06
:1011A400D24A424BB24B224C456182805E8BCDB712
:1011B4000111973700009387670422CC03A4070B1F
:1011C40026CA06CE2AC42EC6854419E40145F24037
:1011D4006244D2440561828083479100034714002E
:1011E400858B6304F7000044CDB719469305A1002D
:1011F40013052400EFF02FDDE31795FE0545C1BF6D
:10120400011122CC17340000130444F418402AC6F8
:101214002EC432C206CE3C4B93F7F7F73CCB9780F3
:1012240001E0E780003E184097360000938646EFC1
:101234003C4B93E707083CCB9C423245A24523A094
:101244000700034715000348250022074208429778
:10125400034805004297034835006208429798D72F
:101264000347550003486500220742084297034894
:10127400450042970348750062084297D8D7034750
:1012840095000348A50022074208429703488500B9
:1012940042970348B5006208429798DB0347D5009C
:1012A4000348E5002207420842970348C500034566
:1012B400F500429762052A97D8DB03C7150003C5DA
:1012C4002500220742052A9703C505002A9703C56E
:1012D400350062052A9798CF03C7550003C56500FA
:1012E400220742052A9703C545002A9703C57500BE
:1012F40062052A97D8CF03C7950003C5A500220726
:1013040042052A9703C585002A9703C5B5006205DF
:101314002A9798D303C7D50003C5E50022074205E1
:101324002A9703C5C50083C5F5002A97E2052E97C1
:10133400D8D3D843759BD8C3D84313671700D8C3F1
:1013440098431367170098C3124698425C43858BF1
:10135400D1E71C4F01452300F6009C429C4FA1831A
:10136400A300F6009C429C4FC1832301F6009C42DB
:101374009C4FE183A301F6009C42D84F2302E60070
:10138400D84F2183A302E600D84F41832303E6000C
:10139400D84F6183A303E60098532304E6009853CF
:1013A4002183A304E600985341832305E600985360
:1013B4006183A305E600D8532306E600D8532183AE
:1013C400A306E600D85341832307E600DC53E183F8
:1013D400A307F600F2406244056182800100B5B7BC
:1013E40017370000130707D41443411122C49C5E2D
:1013F4004AC006C6998326C2858B3A8417390000F1
:10140400130909D2D1CB9C5E97340000938444D253
:1014140093F7F7F99CDE173700000347C7D193070A
:101424000008631BF700832709009C4393F7070414
:10143400173700002301F7D083C7040093F707048C
:101444009DC3973700009387A7B79C43829797372C
:10145400000023A7A7CE83C7040093F7F70B173721
:1014640000002307F7CC83C7440093F707048DE7F4
:10147400854717370000A30FF7CA973700009387F3
:10148400E7CC9C43096798C7130700FC9736000014
:101494002382E6CAD844F8D31C40985F1183058B95
:1014A40009CB985F3D9B98DF05479736000023835F
:1014B400E6C8985F1D83058B11CB985F1377F7F708
:1014C40098DF8547173700002306F7C683270900EE
:1014D400D8430583058B19C7D843759BD8C3D84314
:1014E400799BD8C3B240224492440249410182808C
:1014F400397106DE16DC1ADA1ED82AD62ED432D278
:1015040036D03ACE3ECC42CA46C872C676C47AC2F7
:101514007EC0F935F250E2525253C2533255A255AD
:10152400125682567247E2475248C248324EA24E81
:10153400124F824F21617300203097370000938748
:10154400E7C0944397370000938787BE03C707001B
:10155400058B11CB97370000238E07BC973700000B
:10156400A38A07BC828003C71700058B65F7F8526E
:1015740071FF83C75700DDB717380000130888BA16
:10158400032708001C5F9583858BD1E709C61C5B84
:10159400BD832300F60085CA83270800985B4607AD
:1015A400935767016356070093E707C0C207C183D7
:1015B40003970600C207C18709C7BA970947B3C78B
:1015C400E7022390F60085CD834715008DCB97362F
:1015D400000083C646B693F606041387970089472E
:1015E4008DCA3A9503470500854699471376F70651
:1015F4006311D60262076187B947634C07008327EA
:1016040008009C5FED838D8B17370000A307F7B2AA
:1016140081473E8582808547EDBF411122C406C6BD
:1016240017340000130484B2184049E9AE87745398
:10163400FDFE3E85B28597370000238C07AE978068
:1016440001E0E78060D7973700009387A7AD9C43FC
:10165400B70680009843558F98C3D857719BD8D745
:1016640097370000A38807AC97370000A38207AC24
:101674001C40094798C3B7F700E003A707D16D9B47
:1016840023A8E7D003A707D15D9B23A8E7D0730065
:101694005010144017370000130787A98347270009
:1016A400858B89EB83473700858BD9C79737000033
:1016B400238207A8B2402244410182808D476310EF
:1016C400F502973700009387E7A59C43B70680008F
:1016D4009843558F98C3D857719BD8D75DBF85471A
:1016E400E319F5FAB567BD075CC70F1000001C408D
:1016F4000967094698C7130700F897360000238B3B
:10170400E6A2173700001307E7A114439842318378
:101714000D8B6319C7001307E043F8D33D673D07FA
:10172400D8C785BF984231830D8B01E71307601931
:10173400EDB71307E01BD5B7FC52ADF3A5BF5D7140
:1017440052DC173A0000130AEA9D03270A0086C6F2
:10175400A2C4A6C2CAC04EDE1C43973900009389B6
:10176400A9A3173900001309699E93F7F7E793E7D4
:1017740007081CC383A609003707CEFF7D179C46C4
:10178400130680022A84F98F9CC683270900130755
:1017940000082800B8CBAE8493051008EFE03FFDA5
:1017A400978001E0E780E0E5978001E0E780E0F2E0
:1017B40083270A009376F41F370FFCFF23A4070046
:1017C400984B4E88CA881367F70398CBF84F1305D4
:1017D40010F8D285137707E0558FF8CF9843F57644
:1017E400FD16758F98C39843B7063300B7020400FB
:1017F4001377F7E798C398439303401F7D1F13772C
:10180400F7E71367071098C303A70900930F800233
:1018140085491C47D58F1CC7832709001307900DE2
:101824003400B8CB1149014713533700269383473B
:10183400030013767700B3D7C740858BDDCF9C4177
:10184400832E0800239C07042390070603AECE02D0
:10185400137EDEFF23A6CE0383AE0700137EF707B5
:1018640093FE0EF833EECE0123A0C70103AE470268
:10187400336E5E0023A2C70383AE0800014E23A289
:101884007E0603DA070663074E0303AE0703038AE3
:101894000600135EFE00620E135E8E416358CA0199
:1018A40003AE0703135EFE002380C60103DE0706B2
:1018B400137EFE0F03AA4E0663060A0003DA8705A9
:1018C400E37F49FB03AE4702337EEE0123A2C70345
:1018D40083870600635CF400034E03003396C9005B
:1018E4001346F6FF3376C6012300C3003E8663D356
:1018F400A7002A8613158601618505071377F70F5C
:101904008506E313F7F3B640264496440649F25994
:10191400625A6161828097360000938626839C42D6
:10192400D847131617016355060298471316170173
:10193400635006027D57B8D7172700001307875E48
:10194400584F050717260000232CE65E116798C739
:1019540098470D83058B1DC3172700000347677D38
:1019640013671700172600002305E67C130700F809
:10197400172600002300E67C214798C79847058B6B
:1019840009CF172700000347B77A136717001726F4
:101994000000A30FE678054798C798470983058B8D
:1019A40009E798470583058B31CF98471726000030
:1019B40013060678172500001305C5760983058BE1
:1019C400630307101841184331830D8B75EBAC4B3F
:1019D400184E93F5050203471700CDCD79EF130791
:1019E4007006D8CF034706001367170017260000B8
:1019F4002300E674114798C718415C57F19B93E79D
:101A040017005CD79C4298479316370163D60602A9
:101A14009736000083C68685C18A172700001307FE
:101A2400E77DC5CE03470707136707029736000013
:101A3400238EE682056798C798479316270163D1DA
:101A44000602172700000347E76E620761876357A2
:101A54000700054797260000238EE66C096798C7A0
:101A640098479316070163D606029726000083C69B
:101A7400F67F858A1727000013074778ADCE034702
:101A840017071367270097260000A381E67E2167C6
:101A940098C7828029D785456315B7001307B00618
:101AA40089B789456315B7001307F0061DBF8D4537
:101AB4006315B700130730072DB71307500715B781
:101AC4001307600739BF034736001367170017264B
:101AD4000000A300E666094739BF834607070946A5
:101AE400BD8A6388C600034707078D463D8BE31311
:101AF400D7F4114725BF83461707918AC9DA0347EC
:101B040017071367870041B7397106DE16DC1ADA46
:101B14001ED82AD62ED432D236D03ACE3ECC42CAA1
:101B240046C872C676C47AC27EC0F533F250E25219
:101B34005253C2533255A255125682567247E24747
:101B44005248C248324EA24E124F824F2161730056
:101B54002030172700001307A75F8346B701972794
:101B6400000083C7B7614C4BB697FD8B33D7F500A4
:101B740097260000A38EF65C97260000A380F660EB
:101B8400058B15EF172700000347975FB3F7E702AC
:101B9400814601471305000233D6E500058A137810
:101BA400F70F19CA6397D70097270000A382075B32
:101BB4008280850693F6F60F0507E31FA7FC828053
:101BC400972700009387C73F9C43011122CC4EC640
:101BD40006CE26CA4AC852C456C282979727000026
:101BE40093870759804781496305A406BE849727D4
:101BF40000009387A738038767013E89635507066A
:101C0400018D135455009727000083C70756937915
:101C1400F501636DF402370AC0A8B70A4057153FAF
:101C24009C449726000083C64654139756003E975B
:101C340083076901158C63C50700636347015697E1
:101C44009727000023AAE752E37BD4FC1604B36968
:101C54003401F24062444E85D2444249B249224A98
:101C6400924A05618280E37D85F8B707C0A8338472
:101C74008740229579B797270000938767349C4360
:101C8400411122C406C626C2829797270000938773
:101C9400274E80476309A406BE84972700009387D4
:101CA400E72D8387670163D80704018D135455001A
:101CB4009727000083C7674B6367F404593D984432
:101CC4009727000083C7674A9396570036971D8C61
:101CD4009726000023A2E64AE372F4FE2244B240AF
:101CE4009244172500000345B546814541011783F9
:101CF40001E06700A3E5E37A85FAB707C0A8338457
:101D04008740229565B7B2402244924441018280C3
:101D140097270000938747489843B7570200938753
:101D2400079F8326070913965600635806008326E7
:101D340007091396660063440600FD17FDF38280CD
:101D440071C5AA870145E9C58D07C207C183F19B07
:101D5400C207C18313074003636FF702172700000C
:101D640013078749084317270000130767481443DC
:101D74006398A6021727000013074720185B014544
:101D840041CB4111C20706C60545DD8D0297B2401D
:101D9400014541018280172700001307A745D9B7E1
:101DA4000357650035E303574500636FF704B30633
:101DB400F7402146637CD6020328050093868700FA
:101DC4001D8FAA9661171726000003560616239244
:101DD400E60023A006012393060014C12312F50094
:101DE400130786FF972600002391E6142313B500FA
:101DF4009725000083D56513B387F54017270000A6
:101E04002315F7122105828008419DB70145828080
:101E140082800DC1972700009387073E03A3070024
:101E2400972700009387C73C83A8070081469A87B9
:101E340063E31701828003A80700636DF50A636BEF
:101E4400A80A13878700E367E5FE03D667002167C6
:101E540005076317E60003C7C19405072386E194C9
:101E6400972500009385050C03D6470003D765002A
:101E74002393070032974207418317250000231656
:101E8400E50A638A6702172500001305A536084191
:101E94006303F50203D5660019ED83D7460023A03A
:101EA400060121073E9621062392C60097270000CB
:101EB400239DE706B6879843E30E17F7972600009D
:101EC400938646339442E307D7F683566700BDF200
:101ED40083D64700035647001843A106B2962392BF
:101EE400D70098C383D76500A10717270000231ED6
:101EF400F7028280BE86C28725BF011197270000A2
:101F04009387C72F22CC03A4870B26CA4AC84EC680
:101F140006CEAA8413092500854915C083C7140079
:101F240003473400858B6304F700405CFDB7194612
:101F3400930544004A85EFE01F89E31835FF2285A5
:101F4400F2406244D2444249B2490561828041115F
:101F5400972700009387872A22C403A4870B26C2ED
:101F64004AC006C693042500054901E82285B2400B
:101F740022449244024941018280A6851305A402A9
:101F8400971002E0E780E036E30225FF405CF1BFF2
:101F94004111972700009387672622C403A4870B67
:101FA40026C24AC006C693042500054901E82285D5
:101FB400B24022449244024941018280A68513051D
:101FC400A401971002E0E780C032E30225FF405CE1
:041FD400F1BF000059
:101FD80097110020938181CB176100201301010222
:101FE8001305400097E5FF1F93854501170600205C
:101FF800130606FE63FAC5008322050023A05500D8
:1020080011059105E3EAC5FE17450200130585A1F0
:10201800970500209385C5FB1386818763FAC50061
:102028008322050023A0550011059105E3EAC5FEAA
:1020380013858187972500209385C52D6377B50083
:10204800232005001105E36DB5FEFD42739002BC27
:102058008D42739042809302800873A0023097E209
:10206800FF1F9382A2F993E23200739052309722B5
:102078000000938222AA73901234730020303D43EB
:102088002A876373C3029377F700BDEFADE59376B4
:1020980006FF3D8ABA960CC34CC30CC74CC7410710
:1020A800E36BD7FE11E28280B306C3408A0697022B
:1020B800000096966780A6002307B700A306B7001E
:1020C8002306B700A305B7002305B700A304B7008C
:1020D8002304B700A303B7002303B700A302B70084
:1020E8002302B700A301B7002301B700A300B7007C
:1020F8002300B700828093F5F50F93968500D58D60
:1021080093960501D58D61B7939627009702000035
:1021180096968682E78086FA9680C1171D8F3E962E
:10212800E374C3F8A5B7B717004003C7770513775B
:10213800E70FA38BE704130700F8A38DE7043D47D7
:10214800238CE70413075003A38CE7048280411112
:1021580022C406C62A841D23B717004093067005BB
:102168002380D704130780FA2380E70401000100C5
:1021780003C6F70213668600A387C70203C6F702E1
:102188001376760FA387C7022380D7042380E7043A
:102198000100010003C6E7021376C60F2387C702B2
:1021A80003C6E702136616002387C7022380D704F5
:1021B8002380E7040100010003C637051376860F64
:1021C800A389C70403C6370513661600A389C70485
:1021D8002380D7042380E7040100010003C73705E3
:1021E8009166130680FA13670702A389E70403D7E9
:1021F8000705558F2398E7049306700503C737052D
:1022080013770702630B071C1307803EB345E502EB
:10221800130880C19308A0041163BD67930E03E8F7
:10222800938707A613065002A166938606D0371730
:10223800004091637D13094F93027005930F80FA54
:1022480033480503B3881503B34ED503B3C8F80262
:102258003308C8023386C5023348D802334ED60243
:10226800814683473705A18BEDDF835707058347F1
:102278003705A18BEDFF83570705B3E777002318D0
:10228800F70483473705A18BEDDF0356070583471E
:1022980027053376C300B307F3023E963306D641CB
:1022A8006354C8006344C6016376DF14638406146C
:1022B800B717004083C6370513873705A18AFDDAAB
:1022C80083D6070583D607051166D18E2398D704D0
:1022D800930670052380D704930680FA2380D704D9
:1022E80001000100834707009376F40F1306700579
:1022F80093F7870F2300F70083470700130880FA36
:10230800D58F2300F700B717004003C737051D8B8B
:10231800631E87103717004083473705A18BEDFFF1
:10232800B717004003C73705218B6DDF03D60705B4
:1023380083C727059166FD16758EB386F602B747E3
:102348000F00938707240547331787000D87334508
:10235800F50236968566938606FAB3968600930745
:10236800800CB386A60213050010B3C6A602330775
:10237800B7028E06B306D640130660553307C70268
:102388003D66130606A63347C702B387F602B3C7EE
:10239800E7026359D00A8507094793067005B3C752
:1023A800E702371700402300D704930680FA23007A
:1023B800D7049607010001008356C702B697C207E3
:1023C800C1832316F7028347370593F7F70DA3094F
:1023D800F704B2402244410182802380D70423803D
:1023E800C7040100010003C7370513670702A38963
:1023F800E70429B585069317160093F6F60FB3C7B9
:1024080017036353C0028507230057042300F70509
:10241800B3C7E703010001000356C702B297C2071A
:10242800C1832316F70235BDFD17F9BF2380C70402
:10243800238007050100010003C73705558FA389CD
:10244800E704E1B5FD1789BF41112A83014E930EB8
:10245800407E130F0019930F400663E46E0E930835
:10246800001913034006B3781503854E0D4FA14F8D
:10247800337365020D891335150063EEBE0E13081C
:10248800F6FF794672984208135808013307C702C5
:1024980013D61700BE0732976146B3F6C602130675
:1024A8008070B386C6023697A166F58F42075D8FA6
:1024B800B716004083C7F60293F70708A307F10091
:1024C8000346F10083C7F60293F70708E394C7FEB3
:1024D8008347F100B716004093F7F70FFDC7B7170A
:1024E8000040930670052380D704930680FA238062
:1024F800D7040100010023AA070383C61703116646
:102508007D1693E60608A388D702D45BC85F938537
:102518004703A98EF18EF5FA930670052380D70438
:10252800930680FA2380D7040100010098C103C7ED
:10253800170313670704A388E702238007044101F0
:1025480082807D133368E3039308E016630E080066
:102558003368F3039308D0166308080093783300B0
:1025680093B818009388D81633081E01131E080163
:10257800135E0E01DDB56393E50305486386080025
:102588000148630303002A8871087298FD15131E19
:102598000801C205135E0E01C181C5B513F8150007
:1025A80063F4BF007908D5B713381800E5BF83C7AF
:1025B800F60293F70708A307F1000346F10083C763
:1025C800F60293F70708E394C7FE8347F10093F7F1
:1025D800F70FF1DF29B7914763EEB702173702000B
:1025E8001307479D8A05BA959C41BA978287B71702
:1025F800004003A7470B1345F5FF698F23AAE70A95
:1026080003A7070B698F23A8E70A03A7070A798D91
:1026180023A0A70A8280B717004083A6470B134759
:10262800F5FFF98E23AAD70A83A6070B558D23A891
:10263800A70A83A6070A758F23A0E70A8280B7171F
:10264800004003A7470B498F23AAE70A03A7070BF4
:102658001345F5FF45BFB717004083A6470B13473F
:10266800F5FF758F23AAE70A03A7070A598D4DB707
:10267800B717004003A7470B498FEDB7B7170040BE
:1026880003D58700420541819377050491EB937741
:10269800F5013755E801130505803345F5028280B9
:1026A8009377050C130700046397E7009377F50108
:1026B80037459C1CCDB72165130505D08280B7F737
:1026C80000E08847CC478280814737370040A146E1
:1026D80063C4C700328582800345B740E38EA6FEF7
:1026E8003385F5000345050085072304A740CDB7CA
:1026F800411122C406C62A8451372947B307E50287
:10270800B2408D83B3D7870222449507B3D7E70237
:1027180037370040C207C1832316F7404101828042
:10272800716541111305052006C6D937B737004032
:10273800130770F82381E7400D47A381E74013078B
:102748000004A380E74005472387E740B2404101E2
:102758008280938741889C43411106C691C3829722
:10276800938781889C4391C382971707002003575A
:1027780007D29307C01263F7E70403D54180930695
:10278800B01263E4A6049386018803A306006307D6
:102798000300B2401305C012410102830507098FE7
:1027A8003385A740E5473305F5024207418309838E
:1027B8009307F7FF3E953345E5021375F50FB240D1
:1027C8004101828013054006DDBF0145CDBF03A846
:1027D8004500411126C206C622C483471800034893
:1027E8000800A944A207B3E70701C2070D68C1871B
:1027F800130828906396070385473284EF706000BA
:10280800AA8419ED9387C1879C4399CB034514008B
:10281800034704002205598D1335150005058297D5
:10282800B240224426859244410182802D452DEFF5
:10283800D841411122C426C206C683471700034760
:102848000700B684A207D98F0D67930697A1328433
:10285800639CD702FD3D9707002083C727C3637693
:10286800F500970700202383A7C285472390F4002B
:102878009707002083C787C12300F4000145B240B1
:102888002244924441018280130787902945E398A6
:10289800E7FECC4589472390F4000946228597E056
:1028A800FF1FE78000E9D9BF828083474500858BF9
:1028B800BDC7011122CC2A84035525009385019CAC
:1028C80006CEEF60D06E058939C50355240001474F
:1028D80081460546ED45EF60F0272AC60DCD97F7EE
:1028E800FF1F9387E76E83D7A70201462C002314A6
:1028F800F10085472315F1009707002083C707B922
:102908002300F50003552400EF70504709C5ED4535
:102918002800EF60F03BF2406244056182808280CB
:10292800416541119385019C7D1506C6EF8050369F
:10293800B24097F6FF1F9386A66E4146954517F558
:10294800FF1F1305E56841016F80B02923AEA186FA
:102958008280411122C406C6854709446313F502E3
:10296800834706000144238CF1861707002003479C
:10297800E7B16378F70017050000130545F3EFA0EA
:10298800106E2285B240224441018280854763034C
:10299800F50209C909476304E5020D476308E50222
:1029A800094582809707002083C747AE2380F5003A
:1029B800014582809387818783C70700C5BF97F742
:1029C800FF1F83D787612390F500DDB713878180C8
:1029D800035707002392E50017F7FF1F1307475F08
:1029E8008356A7020357A7032383F5002390D50036
:1029F8002391E50075BF411106C6A13B970700204A
:102A080083C7C7A8637CF500970700202380A7A881
:102A1800170500001305A5E9EFA07064B240014551
:102A28004101828041677917630CE502411122C494
:102A380006C685472A84639AF50022852244B24057
:102A48009385019C41016F80B02489476396F50006
:102A58008545EFA0505B75D1B24022444101828088
:102A68008280CC41411106C6328503C6150083C554
:102A7800050022064D8E42068D654186138875A293
:102A8800630C060F6348C804138845A26306060B47
:102A9800634AC800938535A26309B60623900600E9
:102AA800294679A0138855A26308060B938565A269
:102AB800E316B6FEC1451D4663ECE5064546198E8C
:102AC80063F3C7003E862390C600972502009385CE
:102AD800A55089A8138895A26300060F634E060BBC
:102AE8001388A5A2630A060F938505A5E318B6FA0D
:102AF80099451D4663EEE502198E63F3C7003E86CD
:102B08002390C6009385018131A89D451D4663E148
:102B1800E5022146198E63F3C7003E862390C6005E
:102B28009385C188BA9597E0FF1FE78080C001466A
:102B3800B240328541018280AD451D46E3EAE5FE9B
:102B48003146198E63F3C7003E862390C600972549
:102B580002009385254CF9B7B1451D46E3EAE5FC2B
:102B68003546198E63F3C7003E862390C600972525
:102B780002009385254B7DB7C1451D46E3EAE5FA7A
:102B88004546198E63F3C7003E862390C6009725F5
:102B980002009385A54579B7C1451D46E3EAE5F8E6
:102BA8004546198E63F3C7003E862390C6009725D5
:102BB800020093852548BDB7C1451D46E3EAE5F601
:102BC8004546198E63F3C7003E862390C6009725B5
:102BD80002009385E542B9B7B5451D46E3EAE5F439
:102BE8003946198E63F3C7003E862390C6009725A1
:102BF80002009385653D3DB797F6FF1F93860656FD
:102C08004146CD4517F5FF1F130545426F80607D8E
:102C180082809387818A9C4303C7C18983C6F181D7
:102C280001E781473E85828003D607006316A60028
:102C380003C66700E308D6FE7D171377F70FA107D1
:102C4800C5B7B2862E86AA85172502001305454307
:102C58006F00927E0111930500030D4506CEEF30FB
:102C68001000930500051145EF30607F9305C00300
:102C78000545EF30C07E85471306F10085451305ED
:102C88005030A307F100EFC04156F2400561828041
:102C98008547631AF5001166130686A9894503C599
:102CA800D1896F10404F89476317F500894503C5DF
:102CB800D1896F10206F828085476398F50019E2EB
:102CC800238BB1882386C18A828009476399E500EE
:102CD80019E6238BF18803D541896F00A07B828098
:102CE8009387018A9C43011122CC06CE2E8481CB86
:102CF8009C4791C78297F2406244056182806C00CC
:102D080013057040EFA0B13C324681452285EFA003
:102D1800717ED5B701119397050126CA06CE22CC3C
:102D28004AC84EC652C4C187AE8463D7070803C5D4
:102D3800D189EF00F06B2A8439C90347050093074E
:102D4800000D6313F704834725004547638BE704A9
:102D58006547639BE702172502001305E52EEF0080
:102D6800B26D130954009309B400172A0200130A1C
:102D7800EA2E8345090052850509EF00F26BE39AB4
:102D880029FF2945EF00526F2285EF00505F21652A
:102D9800258DF2406244D2444249B249224A056133
:102DA80082800346650083457500172502001305D8
:102DB800652BEF007268C9BF93F7150085C317F636
:102DC800FF1F1306263B97F5FF1F9385E53903C5BB
:102DD800D189EFC0A11013C5140065BF93F7250072
:102DE8000145C5DB09391166130686A9894503C55E
:102DF800D189EF10403A13C5240061BF797126D2FA
:102E08004ECE06D622D44AD052CC9147AA84AE8957
:102E18006314F50483D7A5001306E100854513055F
:102E28005030239AF18823070100238B0188EFC0D3
:102E3800C13B9387018A9C4391C7DC4781C7CE85F4
:102E480026858297B250225423AC91880259925415
:102E5800F249624A45618280138781891843E31ADF
:102E6800F7FC854503D54189753E854503D54189DC
:102E78004125C16703DA4189F917631BFA02054442
:102E88009305E10013055041238B0188A38F8180AE
:102E980023070100EFA0B1238347E100B1E303C793
:102EA800C18A9147E317F7F875332386018A51B72A
:102EB8009387818A03A9070003C4C18969D0035590
:102EC800290011C99305E100EF60D07309C54C458D
:102ED8005285EF80E05B7D141374F40F2109F9BF6C
:102EE8009387418A9C4383C74700898BCDDB930531
:102EF800000A0D45EF30A0569305000A1145EF3042
:102F0800005681450545EF3080551306E10085459B
:102F18001305503023078100EFC0212D49B7011157
:102F280017050000130545DF06CE22CCEF10006F11
:102F38001384D18985471306F10085452300A40031
:102F480013054041A307F100EFB041027D55EF6042
:102F5800A0087D55EF80A0504531D93219231705B7
:102F68000000130525D3DD3217050000130585CAB7
:102F7800392B034504008545EF10E00FF240624409
:102F88000561828023A0B18A23A2A18A828023A41A
:102F9800B18A238EA1888280938781899C43797125
:102FA80006D622D426D24AD04ECE52CC1147639BA5
:102FB800E70483C76189414481CF9387818A80432D
:102FC800B284B68983C7C18903C7F18199EB554497
:102FD8002285B250225492540259F249624A4561FC
:102FE800828083464400639AA60083465400639611
:102FF800B600834664006380E606FD1793F7F70F73
:103008002104E9B709474144E384E7FC2C00130590
:10301800504123040100EFA0910B834781008DCB21
:10302800930500020D45EF308043930500031145D9
:10303800EF30E04295450545EF3060428547300066
:103048008545130550302304F100EFC0011A49B734
:1030580011314144B5BF0355240093056100EF6069
:10306800705A35D54C4503D54189EF6040740589C0
:1030780039DD1399040113590901014781464A862C
:10308800ED4503D54189035A0400EF60A02C2AC6F8
:103098004D441DDD2686CE852314410123152101CB
:1030A80097D0FF1FE780E06801462C0003D54189CF
:1030B800EF70C04C2A84E30D05F0ED452800EF6061
:1030C800204139B7C841011122CC06CE32840346CB
:1030D8001500034505002206498E19CB0D68130813
:1030E800B8A42D4563090607F24062440561828051
:1030F8000D651308D5A463000603130825A2630C05
:10310800060175781308E85C3298420813580801DC
:10311800854863EE080303D5A50036C632C4D53CFE
:10312800B24615C19387018A9C43224683455500C0
:1031380003A30700A2876244F2400345450036878F
:1031480085460561028323900600014571BF130877
:10315800B5A46317060303D621821D45E376C7F895
:10316800198E63D3C7003E86CC452390C60042061D
:103178004182BA95228597D0FF1FE780805BF1B71F
:103188009307A5A46318F60091472390F60011460B
:10319800CC45CDB7930785906317F60089472390F0
:1031A800F6000946F5B79307E5A4631AF600DC456F
:1031B8002390160183C707002300F40079B713058D
:1031C8007590E314A6F8D9BF011122CC06CE26CA01
:1031D8004AC82317D1002D4429EBDC412E89B2843B
:1031E80003C4170083C7070022045D8C8D6793868C
:1031F800D7A46306D400938627A3631FD40203557C
:10320800A900013C19E101440DA09387018A9C4360
:10321800834555000345450003A807002286A68775
:103228001307E100814602982A842285F24062440D
:10323800D2444249056182809386C7A46314D402AC
:103248008357E10005473544E391E7FE034506004F
:1032580013040008E3EBA7FC9387018A9C43DC4333
:10326800829755B793862790631AD4028356E10054
:103278008547EF6000592A844DF99387818A8356E0
:10328800A9009C4303C7C1893DDF03D62700630219
:10329800D6047D171377F70FA107FDB79387E7A427
:1032A800E313F4F68357E10005473544E39FE7F657
:1032B8000345060013040008E3E9A7F6DC4523806C
:1032C800A7009387018A9C433335A0000905DC4396
:1032D80041BF1387018A184303C5470083C55700B8
:1032E80083C714000328070003C70400A207894600
:1032F800D98FC207C18705476383E7008D460D66EE
:10330800A6871307E10013062690029839BF416586
:1033180041119385019D7D1506C622C426C24AC067
:1033280097F4FF1F9384C4E5EF80801697F6FF1F7C
:10333800938606F74146C9452685EF80800ACC4C1E
:103348002A890945EFF08FE49387C18283D7070064
:103358001384019E138781822312F40083D7A40C5F
:10336800035707009385019F2310F40083D7A40D0A
:103378002316E40003D7A4102311F4000D45854754
:103388002303F4002314E4002307F40023150400A6
:10339800EFF0CFDFA2850D45DD3EB24022444A85DD
:1033A80092440249410182808D679387D7A40145E1
:1033B800631FF6008D472945639BF5008547354512
:1033C8006397F6008347070001452387F18A8280C7
:1033D8008D679387D7A4631EF6008D47639BF5001E
:1033E80083C7E18A2300F70085472390F60001454B
:1033F800828023900600E5BF0145828025E303A86B
:103408004500AE888347180003480800A207B3E7C1
:1034180007010D68930EF8A4639AD70391473548BE
:10342800639FF60203A5C8004111B285114606C67E
:1034380097D0FF1FE780E02F9387C18B9C430545FA
:103448008297B240014842854101828093082890C2
:1034580029486396170185476F60A03A2D48428531
:103468008280416541119385819F7D1506C6EF8055
:103478002002B24097F6FF1F938646E941469945D8
:1034880017F5FF1F130585E241016F70907523AE94
:10349800A18A828001119385819F22CC06CE2A843D
:1034A800EF60E030058929C1014781460546ED45B1
:1034B8002285EF50306A2AC605C997F7FF1F938700
:1034C800E7DE83D7A70501462C002314F1008547C2
:1034D8002315F100230005002285EF70200A09C595
:1034E800ED452800EF50D07EF240624405618280AD
:1034F80041677917630CE502411122C406C6854766
:103508002A84639AF50022852244B2409385819FDC
:1035180041016F70F07789476396F5008545EFA004
:10352800802E75D1B24022444101828082801145AB
:103538006FE0FFC1411193962500AA852D4506C667
:1035480097D0FF1FE78040E8B240014541018280E3
:10355800411126C29394250022C44AC02A84328984
:10356800A686AA850146254506C697D0FF1FE7808F
:10357800A0E5A6864A86A285294597D0FF1FE78041
:10358800A0E4B240224492440249014541018280AC
:10359800011122CC06CE3714004026CA4AC84EC6AE
:1035A80052C483447405034AB40583498405034916
:1035B8009405EFE05FB78347A40593F4F40F137AFB
:1035C800FA0F93E71700230DF40493F9F90F137911
:1035D800F90FB717004003C7A705058B6DFF03D583
:1035E800C705A38D4705238C3705A38C2705A38B17
:1035F8009704F2406244D2444249B249224A0561E2
:10360800828041119397050122C406C6C1872E8482
:1036180063DB0700F12B11C19D232165218DB24089
:1036280022444101828093F7150013C51500E5FB7C
:103638009397250163D00702EF606135CD3D37F6DA
:103648000200130606E0896503C5018CEF00B0345B
:103658000965E9B7939715010145E3D207FC1725DA
:1036680002001305A5ABEF006271130600649165B3
:1036780003C5018CEF00303211654DB71D71494605
:1036880097250200938505A5172502001305C5E5B2
:1036980086CE97D0FF1FE780C01201E917250200E8
:1036A800130585A4EF00826D01A0B7F600E07957F5
:1036B80098CAFD57DCCA0567B7E700E023A0E71002
:1036C8001306F00290C223A0E718010001001306B8
:1036D800C0038145480897D0FF1FE780000997F786
:1036E800FF1F938727FB3ECA896793870780231CA0
:1036F800F100ED472312F1029547A301F102854736
:103708002303F102B5472304F102A167938707E079
:103718003ECE97070000938727E2BEC497070000B4
:10372800938747E3BEC68567938717D02315F102B1
:1037380097F7FFFF9387E7F83EDAB7F50700970793
:103748000000938727E53EDE8146970700009387B0
:1037580047DE7000E1051945BEC097D0FF1FE7801E
:10376800A0C658088147994670003E960346060051
:1037780085070507A30CC700E398D7FED24791C772
:103788000357810185676373F70001A04808EF00BC
:10379800B06CAA8501C91725020013052596EF000C
:1037A800A24901A0F6402561828041111705000059
:1037B800130565E506C622C4EF0050661384018C24
:1037C8002300A4002928034504002244B24037F608
:1037D8000200130606E0896541016F00D01B411104
:1037E80006C6B7170040130670052380C704930662
:1037F80080FA2380D7040100010003C7F70213777A
:10380800A70FA387E7022380C7042380D7040100FA
:10381800010003C7F70213672700A387E702238085
:10382800070431331305407E814701478146054629
:103838008545EFE07FC1B240014541016F10E014BA
:1038480082803D897D15954763EAA70E17270200F8
:103858001307078D0A053A951C41011106CEBA9740
:1038680082872C0013054030EFB091052C000545E8
:10387800EF40D042172502001305058FEF000250D4
:1038880011A803C725008D47172502001305C58E0B
:10389800E306F7FEF2400561828003C725009547DD
:1038A800E31AF7FE83D7A5000D6613060620914597
:1038B80003C521842390F184EF00F00D1725020041
:1038C8001305858C65BF03C725008D47E314F7FCF6
:1038D800172502001305058C55B783C72500114726
:1038E800172502001305858C638EE7021947639438
:1038F800E70283C56500172502001305E58CEF0074
:10390800A233854730008545130550302304F10064
:10391800EFB0B10D41B71547E395E7FE1725020053
:103928001305458CEF008245E9BF83C5250017259F
:1039380002001305A58CEF002230A9BF82803A88C7
:103948003E8781E68346080085B485476394F60080
:10395800C286BDBC8947639FF60041111306401F0C
:10396800894503C5218406C6EF00F002B24001452F
:10397800410182800145828001119397050122CC83
:1039880006CEC1872E8463DD070003C521848D24FC
:1039980011C1F5222165218DF240624405618280C2
:1039A80093F7150013C51500E5FB93F7450099CF6C
:1039B80083C721841307401F81462146A14503D5AB
:1039C8000184EFB0014B13454400F9B793F7850024
:1039D8009DC3014789460946814503D50184EFB057
:1039E800512CAA851715020013050575EF00C2248E
:1039F8001345840055B793F725000145D1DFB70774
:103A08000200938707207400114685453EC6EFF0F3
:103A1800AFD813060032894503C52184EF00A0778B
:103A28001345240095BF011117050000130505F57E
:103A380006CE22CC26CAEF00703E9384218405442A
:103A48002380A400700085451305503023068100AB
:103A5800EFB0A179138601839D4513056030EFB05F
:103A6800C17817F6FF1F1306268CE9451305703039
:103A7800EFB0A177171602001306866DD5450145EC
:103A8800EF5060478D47700091451305704023053E
:103A9800F10023048100A305810002C6A3040100EC
:103AA800EFA0C14C3000854513050040EFA0014C44
:103AB80013069100854513051040EFA0214B13060E
:103AC800A100854513052040EFA0414A1306B10027
:103AD800854513055040EFA0614999477000854519
:103AE80005452306F100EFE0DFE6EFF05F8297F58A
:103AF800FF1F9385658213858183EFF0AFC803C5E7
:103B0800040085458D2BF2406244D24405618280D1
:103B180041111305800406C697C0FF1FE780605A4D
:103B2800371700408327870A8D451305002093E740
:103B380007202324F70AEFE01FAAEFE07FBE17252E
:103B480002001305659AEF0062230D3EB939EFB004
:103B58009115EFF0CFBCC13D97C0FF1FE780807A79
:103B680023AC05FE1C4191E7010001000CC18280D5
:103B7800BA8703A787FF6DFF23ACB7FE82801DC1FC
:103B88008346E5FF1307F00F9147639EE600411156
:103B980006C697E0FF1FE7808027B24081473E8531
:103BA8004101828095473E85828001E901458280F6
:103BB8000145B240224441018280956541119385B7
:103BC80005D022C4C98D2A842105C2054205C181B8
:103BD800418106C697E0FF1FE780401671D9FD575F
:103BE80023200500231285002303F5002105D1B702
:103BF80017070020130747321C43411122C426C26D
:103C08004AC006C601440149BA8491E7A165EF009C
:103C180060791DC401A803C7E7FF631AA7020DCC8A
:103C2800A16591299840832784FF6319E402170747
:103C380000202323F72EFD57232C04FE230FF4FE28
:103C48002285B2402244924402494101828011E017
:103C58003E8983A787FF55BF3E84E5BF232CF9FE25
:103C6800D9BFB1CD411122C406C62A8497070020C6
:103C780083C7D72A2E856375F400894763E88700D0
:103C8800FD3D0D45B24022444101828083A785FF56
:103C980099E703C7E5FF9307F00F6305F700C535FC
:103CA8001545CDB7238F85FE170500201305C526BA
:103CB800453D22852244B240A16541016DAE1545BE
:103CC80082809707002023A9072482809707002075
:103CD8009387072A9C4399E33E85828003D7270070
:103CE8006316B70003C70700E308A7FEDC47E5B77C
:103CF800C9C1797122D406D626D24AD04ECE014403
:103D08004147B3D78540858BA5C312053147229516
:103D18003305E502970700209387872903A9070041
:103D28008544B3948400C204C180BE892A990327BC
:103D3800090011C7032549002EC60297B24531472D
:103D48003304E40283A709003E941C4489E7232036
:103D5800090023220900B2502254A58D0259925419
:103D6800F2492E85456182800504E31CE4F881440C
:103D7800DDB72E85828041111397050122C406C63E
:103D880026C24AC041872E84635E0700953511C15B
:103D9800FD33A1673D8C2285B240224492440249FA
:103DA80041018280EDD9AA8701474146B356E440D4
:103DB800858A8DCE9207BA97B146B387D702970600
:103DC80000209386E61E03A906008544B394E40008
:103DD800C204C1803E9983270900032549008297C0
:103DE8002320090023220900258C75B70507E31F46
:103DF800C7FA8144D5BF970700209387A7179C531C
:103E0800411122C406C61384418499C782971C4075
:103E18003E9523A2A18439A0970700209387C7194C
:103E28009C43EDF70840B74703009387D73F330516
:103E3800F502B7A72600938737ECB24022443E9597
:103E480023A2A184410182800111680006CE22CC00
:103E580026CAEFE00066FD576300F50E3247970665
:103E68000020938626119707002083C7F711B68490
:103E780063F9E70A170400201304440A18483706B0
:103E8800C0A8630EC702970700209387E7129C43D8
:103E9800829732471C486373F700BA8717070020D8
:103EA8000347970E998F3E958387640163CE070079
:103EB800B707C0A8636AF500B7074057A5A8838667
:103EC800660163D506061D8D170400201304C4255A
:103ED8001C4C81CF970700209387872B9443370783
:103EE800CDFF7D179C46F98F9CC619E13705C0A800
:103EF8009707002093870708DC53829719E51C4C25
:103F08008DC3EF50713EEF50A1241C4C99CB9707FD
:103F180000209387E7279843B70633001C47D58FBF
:103F28001CC7F2406244D24405618280E37DF5F803
:103F3800B307F7403E9549BF97040020938404FED9
:103F48009C483704C0A8E38E87FC97070020938716
:103F5800A7069C4382979C48170700200347D7026F
:103F6800998F3E95970700209387C700838767013D
:103F7800E3CC07F4E36A85F481B77DC93748F6A630
:103F8800130808C889476366C80E79719707002027
:103F98009387070222D45AC803A807003E8B06D687
:103FA80026D24AD04ECE52CC56CA5EC662C401440E
:103FB800B148C147B30B1403137CF40F33037801E2
:103FC800032303006311030AAE8AC165AA8493859B
:103FD80005F041453A8AB689328997E0FF1FE780A4
:103FE800E0D50DE9970700209387C7F89C5B99EF08
:103FF8008147B250225492540259F249624AD24A35
:10400800424BB24B224C3E85456182808145114529
:104018008297F9BF97070020938787F5984321E394
:104028009707002023A6A7F42300050083270B0089
:10403800054733148700232605002324250123116F
:10404800850023224501DE9784C323A2570123A4B8
:104058004701E38F09F82380890159BF3687544700
:10406800F5FE48C7D1B70504E316F4F4A14751B7E4
:1040780089473E8582809707002083C737EA6371A6
:10408800F50217070020130767EE9317150008437A
:104098003E9583570500DD8D2310B50001458280CC
:1040A8000D4582809707002083C757E76373F502A1
:1040B80017070020130787EB93171500084393C5CC
:1040C800F5FF3E9583570500FD8D2310B50001458A
:1040D80082800D4582809307F00263EBA70AB14600
:1040E800B306D50297070020938787EC9843894742
:1040F8003697184359CF011122CC4EC6054493591F
:1041080045003D893315A40013140501418026CAD2
:104118004E85AE84A2854AC806CE4D3E2A8981477F
:1041280025C1A2854E85BD3F970700209387C7E824
:104138009C4382979707002083D7C7E0338797026D
:104148002A84130600648146B3B797021305073221
:10415800B335E500BE95EFF04169970700209387D6
:1041680067E183876701229563C90700B707C0A87D
:104178006365F500B70740573E952324A90081479A
:10418800F2406244D2444249B2493E850561828088
:1041980089473E8582809707002083C737D86364A4
:1041A800F500014582800111970700209387C7E039
:1041B80026CA844306CE22CC4AC84EC6CDC8AE898C
:1041C8009705002083D505D8B387C5022A8432898C
:1041D8008146B3B5C50213850732B337F500130618
:1041E8000064BE95EFF06160B747F6A6938707C8ED
:1041F80063EFA70682949705002083D5A5D4B387DB
:104208002503AA84130600648146B3B525031385E4
:104218000732B337F500BE95EFF0215D9707002010
:10422800938747D503876701AA943E8963490700A6
:10423800B707C0A863E5F400B7074057BE94CE851A
:104248002285EFF0BFA801C504C5054515A09365F3
:1042580004F0C205C181414597E0FF1FE78000AE29
:1042680019ED8327090381C7A28511458297014566
:10427800F2406244D2444249B249056182809707BC
:1042880000209387E7CE9C439DE39707002023A156
:10429800A7CE85472326050004C523113501230031
:1042A8008500A300F5002322050045B7BA87D84743
:1042B80075FFC8C7F9BF51C9797122D426D24AD02F
:1042C8004ECE52CC56CA5AC85EC662C406D6B68905
:1042D800B28A2E8A2A899304000C4144170B0020C5
:1042E800130B0BCD054C930B000383270B00A697EC
:1042F8009C43A1E79375F400B315BC00C20556862C
:10430800C18113554400413D0DC983270B00014568
:10431800BE9423A0240123A24401638409002380BE
:104328008900B250225492540259F249624AD24A40
:10433800424BB24B224C4561828005041374F40F42
:10434800B104E31474FB2145E9BF0945828041119A
:1043580022C426C24AC006C62A842E89B284253DB4
:10436800CA852285EFF09F9605CD9705002083D555
:1043780065BDB38795022A84130600648146B3B5E8
:10438800950213850732B337F500BE95EFF0E14586
:1043980048C00145B240224492440249410182800A
:1043A8002145CDBF411122C426C24AC006C62A896A
:1043B8002E84EFF0BF91AA8419C123110500A285AC
:1043C8004A85CD319707002083C747B5639B2701EE
:1043D8009707002083D747B95D8C9707002023955E
:1043E80087B8014591E01945B240224492440249F8
:1043F800410182809307F00263E8A7044111B147A5
:1044080022C43304F50226C297040020938444BAD8
:104418009C4006C6A297984389470DC39377F50039
:104428008545B395F500C205C1811181A53F9C4022
:10443800A29723A0070023A207008147B240224485
:1044480092443E854101828089473E8582804111A0
:1044580006C622C4EFF09F8711E50145B240224409
:104468004101828097070020938707B59C43004548
:104478008297970700209387E7AF8387670163D800
:104488000702B747F6A63305A4409387F7C7E3E6C4
:10449800A7FC93070064B335F502170600200356FE
:1044A80066AA81463305F502EFF0213445BFE37A69
:1044B800A4FCB707C0A83E94E9B7411106C6970700
:1044C800002023A9A7AE0295B2409707002023A396
:1044D800A7A6014541018280994763E9B7008A058B
:1044E80097070020938787A6BE9588C182804111CF
:1044F8007146814517050020130545A506C697078F
:10450800002023A707A69707002023A507AA970737
:10451800002023A307AA97C0FF1FE78000251306E2
:10452800C0028145170500201305459F97C0FF1F4E
:10453800E780A023EFB0E1009707002083C7F7A426
:1045480013D527008D8B3E958D473305F50285459C
:1045580039051375F50F970700202382A79C994703
:104568003305F5021305052497D0FF1FE780007D6A
:1045780017070020232EA7A259CD99471706002018
:104588000346E6993306F60281451306062497C0CA
:10459800FF1FE780801D97070020938767A19C4332
:1045A80093870724170700202320F79A170700206E
:1045B8000347E7960A07BA97170700202328F79AB0
:1045C800EFF02FF04129970700209387E79794434E
:1045D8009707002083C7979413972700369717F6F5
:1045E800FFFF1306267110C3138717001377F70F01
:1045F8000A07369717F6FFFF1306267810C31387A6
:104608003700890793F7F70F8A0797050020A387D4
:10461800E590B69790C3B240410182809707002089
:1046280083C7D78F170700200347678F63F3E70215
:10463800170700201307479118439386170017069A
:104648000020A30DD68C93962700369708C33E8585
:1046580082809307F00FE5BF1C41638507164177F9
:104668007D8FB70600208947631FD714035745007D
:10467800630B0714411122C419462A849305F00FCD
:10468800690506C697C0FF1FE780401805478D4794
:104698006305E5121C4481CB58589947630F0710EE
:1046A800185C630C07101306C0038145170500202A
:1046B8001305458C97C0FF1FE780200B1306C00326
:1046C800A285170500201305E58A97C0FF1FE7801C
:1046D8004006170700200357A78A970700209387EB
:1046E800678919E71307001097060020239AE688C0
:1046F800170700200347E78811E7054797060020BA
:104708002381E688170700200357C78711E76D47FD
:10471800970600202398E686170700200347778628
:1047280011E7154797060020A38DE6841707002098
:104738000347678511E70547970600202385E68428
:10474800170700200347378419E703C7F7009706C0
:104758000020A38AE682170700200347E78211E7B3
:104768003547970600202381E68217070020034774
:10477800F78119E71307800297060020A388E680CF
:10478800170700200347578019E71307D00297F649
:10479800FF1FA38BE67E0347840119E71307C003B5
:1047A80097F6FF1F2384E67E9C5791C7829797F759
:1047B800FF1F2399A776253B8147B24022443E85B7
:1047C8004101828089473E85828097F7FF1F938742
:1047D800A77E9C43411106C622C426C24AC08297BE
:1047E80093070064B335F50217F4FF1F130404732D
:1047F8000359840281464A863305F502EFE0F17ECB
:10480800004CAA8401456304940233858440636C98
:1048180094004A868146370500B09305E041EFE0F1
:10482800D17C018D269597F7FF1F23A59770B2407D
:1048380022449244024941018280011122CC0A8516
:104848002E844146970502009385C57506CEEFF084
:104858004133180806043A94035504FF97F7FF1FDD
:1048680083D7676EF2406244AA9737450F00130555
:1048780005243355F5020561828097F7FF1F83D71A
:10488800876C51471D45637CF70279471945637862
:10489800F7021307200315456373F7021307B004E3
:1048A8001145637EF700130740060D456379F7004D
:1048B8001307600909456374F70013B5B70F8280C1
:1048C800011122CC06CE2A842EC6EFF0CFD2B245F3
:1048D800F240818D33A5A502229562441375F50F28
:1048E80005618280011122CC06CE2A842EC6EFF003
:1048F8008FD0B245F240818D33A5A502229562443E
:104908004205418105618280011122CC06CE2A84AC
:104918002EC6EFF04FCEB245F240818D33B5A502D9
:10492800229562440561828097F7FF1F9387876409
:10493800985739CB411122C426C206C6BE840297B5
:1049480017F7FF1F0357075E2A8415CBBA876373CF
:10495800A700AA87C207C183BA866373E400A28648
:10496800C206C182958F5147635BF700DC5491C33F
:104978008297EF50C10197F7FF1F2395875AB240DE
:104988002244924441018280828097F7FF1F9387D7
:10499800675EDC57011106CE81C72AC68297324569
:1049A8001DC5B7873200938727A117F7FF1F232B51
:1049B800F75897F7FF1F23A1A760170500001305F5
:1049C80005E1EFF09FAFF24001450561828097F75E
:1049D800FF1F83C7875B139787016187635C0702A3
:1049E80097F7FF1F23AA0754B7873200938727A199
:1049F80017F7FF1F2328F7547D57B7C7004023A494
:104A0800E72697C7FF1F9387871717F7FF1F2325E9
:104A1800F75A65B713F7170011CFB78720039387A5
:104A280007D017F7FF1F232FF75097C7FF1F93874C
:104A38002718E1BF617797F6FF1F2395E65081CBD2
:104A48009307003217F7FF1F231FF74EF9BF93078D
:104A58002003CDBF011122CC17F4FF1F130484518A
:104A6800084406CE26CA4AC801E90545F240624410
:104A7800D2444249056182805C58E5DB185C75D7F1
:104A88007000854582971844B247E300F7FE930506
:104A9800E00417F5FF1F0355A54E97D0FF1FE780C9
:104AA800E02917F7FF1F232BA74861D117F6FF1F2F
:104AB8000356064D9305F00F97C0FF1FE780E0CA25
:104AC800814417F9FF1F1309694597F7FF1F83C72B
:104AD800474B0326090263C1F402328597D0FF1FB2
:104AE800E780E032014597F7FF1F23A9074497F7AE
:104AF800FF1F23A707449DBF97F5FF1F83D5454890
:104B0800B38795020844185C898185043E9508C2DC
:104B1800029765BF411122C417F4FF1F130484458F
:104B28001C4426C206C64AC097F4FF1F9384043F5C
:104B380091EB885025EDB240224492440249014548
:104B4800410182801C5CF5D79C5099EF9305E004E5
:104B580017F5FF1F0355C54297D0FF1FE780001EBA
:104B680097F7FF1F23ACA73C885061D517F6FF1FA6
:104B7800035606419305F00F97C0FF1FE780E0BE7C
:104B8800014997F7FF1F83C7C73F9050E353F9FACE
:104B980097F5FF1F83D5C53E338525031C448981BE
:104BA80005093E951C5C08C28297E1BF97D0FF1F9C
:104BB800E780E02597F7FF1F23A2073897F7FF1F25
:104BC80023A007388DBF011156C297FAFF1F938A99
:104BD8006A3A83A78A0022CC4AC84EC606CE26CA9D
:104BE80052C45AC0AA892E8432896385072203A732
:104BF8004A03630707147D476366A71497F4FF1FEA
:104C08009384C43103AA040263170A0A956593853D
:104C180015E017F5FF1F0355A53697D0FF1FE7804E
:104C2800E01197F7FF1F23ABA7302A86630A051008
:104C380083A74A0303A58A0097F5FF1F83D5453448
:104C48008981829783A78A0003AA040217F7FF1FA6
:104C58002328F72E8947639CF908C1476312F40E8D
:104C680097F5FF1F83D5C531938505FC9147B3C5DB
:104C7800F5028A05D29503C705009307A005631DB1
:104C8800F70A83C715006399370B4A852286910571
:104C980097C0FF1FE780E0A99C5052856393471592
:104CA8000145F2406244D2444249B249224A924AFA
:104CB800024B05618280D850E38EE7F895659385AD
:104CC80025E017F5FF1F0355A52B97D0FF1FE78099
:104CD800E0062A8A35C52A8683A74A0303A58A00DF
:104CE80097F5FF1F83D5C52989818297A5B78D4779
:104CF800639DF900C1476315F40497F5FF1F83D539
:104D08002528938545FDF199B5B79147639AF90030
:104D18006318340397F5FF1F83D58526A115E5B7DA
:104D2800C147639FF900A14763EC870097F5FF1F10
:104D380083D50525C115C1BF9C5052856397470D82
:104D4800294585B71307F006568B6361A70A130A2E
:104D580005FE1947334AEA0217F7FF1F0357472290
:104D680097FAFF1F938A8A1B330AEA023E9A83A79F
:104D78004A026395470183A40A029DE49305E0046F
:104D880017F5FF1F0355C51F97D0FF1FE78000FBCE
:104D9800AA845DD583274B0397F5FF1F83D5451E4E
:104DA8002A8689815285829791451307A0058981B2
:104DB80093972500A69783C607006393E60483C6E6
:104DC8001700639C360385058A052286A6954A85C1
:104DD80097C0FF1FE780E09583A70A02E38297EC5C
:104DE800268597D0FF1FE78080025DBD1307E00787
:104DF800E368A7F4130A05F985B783D5270045BFEB
:104E080083A70A02E38E97F2268597D0FF1FE780D3
:104E180000003DB797F7FF1F938747108C538DD13C
:104E280091479306A0058983139727002E97034679
:104E38000700E317D6F003461700631C3601850701
:104E48008A072286BE954A8597C0FF1FE780608E35
:104E580081BD83572700C1BF97F7FF1F938787112D
:104E6800984739C79C5FA9C705476313E5044111F3
:104E780022C417F4FF1F1304640A105006C60DC697
:104E8800485097F5FF1F83D5A50F89818297085051
:104E980097D0FF1FE780A0F797F7FF1F23A0070A07
:104EA80097F7FF1F23AE0708B240224441018280D2
:104EB8008280011117F7FF1F1307C70B4EC68329FE
:104EC800870022CC26CA4AC806CE52C456C2AA8433
:104ED8002E843289638A09201C5FBA8A99EB294596
:104EE800F2406244D2444249B249224A924A056198
:104EF80082805C5BEDD7FD4763E9A70E97F9FF1F3A
:104F08009389C90183A70902B1CB03A58A0083A7A6
:104F180049026395A70689476393F408C147E310DC
:104F2800F4FC17F5FF1F0355A5059147130505FC6C
:104F38003345F5029317250003A509022286CA8581
:104F48003E959307A0052300F500A30095001105E1
:104F580097B0FF1FE780E07D014559B79305E0044E
:104F680017F5FF1F0355C50197D0FF1FE78000DD28
:104F780097F7FF1F23A4A7FC49F995B783A74A030E
:104F880003A6090297F5FF1F83D585FF89818297BC
:104F980083A78A0017F7FF1F2324F7FAADBF8D47B1
:104FA800639EF400C147E31CF4F217F5FF1F035595
:104FB80025FD130545FD9377C5FFBDBF9147639A4E
:104FC800F400E31E94F017F5FF1F035565FB211548
:104FD800DDB7C147E395F4F0A147E3E287F017F5A1
:104FE800FF1F0355E5F94115F9B79307F00663EA82
:104FF800A706930705FE1947B3C7E70217F7FF1F70
:10500800035707F817FAFF1F130A4AF1B387E70295
:10501800BE9983270A02A9CF83274A02639A3707D2
:1050280003250A0291461308A005FD5593D72600CB
:10503800C207C183139727002A9703460700631DF9
:105048000607834817000356270063959806B3069A
:10505800D64063CF860485078A072286CA853E958F
:10506800C5BD9307E007E3ECA7E6930705F979B711
:105078009305E00417F5FF1F035585F097D0FF1F30
:10508800E780C0CB97F7FF1F23AAA7EA51F581BD98
:1050980083A74A0303260A0297F5FF1F83D545EE27
:1050A80089814E85829797F7FF1F23AB37E98DBF1C
:1050B800A300B700B2869DBFB385860017F6FF1F11
:1050C800035606EC9105130606FCE3FAC5E0130641
:1050D80034001376C60F1106B29623000701A30009
:1050E80097002311D70085BF97F7FF1F938707E322
:1050F8009453BE89A1C203A5090291461308A005CD
:10510800FD5593D72600C207C183139727002A9716
:105118000346070063160605834817000356270051
:1051280063989800B306D640E3D786F2A300B70089
:10513800B286C1BF8357C70017F5FF1F034565E453
:105148009305E0043305F5024205418197D0FF1F1E
:10515800E780C0BE97F7FF1F23A2A7DE49FD41B332
:1051680017F6FF1F0356C6E197F5FF1F83C565E1D4
:10517800B385C502338686001106E3E2C5D681BF32
:1051880001458280011106CE2EC6EF80805501C9E7
:10519800B245F2400355250005616FC02064F24016
:1051A800494505618280A388018E2388018E23AC3E
:1051B800018C23AE018C23A0018E23A2018E23AA89
:1051C800018C23A8018C97F7FF1F938727E113060B
:1051D80040382391C70271761307400B130606B8AF
:1051E8002391E7002392C70211671D469306000525
:1051F8009305000A1305007D2392E7002393C70255
:1052080041470546130810F82395E7002396E70061
:105218002399E700239AE700239BE700239CE700F4
:105228002394E70223960703239007002393B700EC
:105238002394B7002397D7002398D700239DA7006E
:10524800239E0700239F0700239007022395C70288
:10525800239707021308F007239807022392E7040D
:105268002393E704239FE7042390E7062391E706A7
:105278002392E706239907031307C01C239AC70242
:10528800239BC702239C0702239D0702239E070234
:10529800239F0702239007042391C704239407043C
:1052A800239507042396C7042397D7042398D70484
:1052B8002399A704239A0704239B0704239C070424
:1052C800239DD704239ED7042393A7062394070678
:1052D80023950706239607062397B7062398B7064C
:1052E80023990706239AE7067D57239B0706239CE5
:1052F800E7068280011126CAAA84214522CC06CE5F
:105308002E8432C636C43AC2EFE03F8A1DC9A2468F
:1053180012473246930700FD2300F5009947A30082
:1053280095002301F5002303D500A303E50023120C
:10533800C500AA8522856244F240D24405616FE027
:105348005F92F2406244D2440561828023ACA18C12
:10535800828023AEA18C828023A0A18E828023A28A
:10536800A18E8280011122CC4AC806CE26CA2A897B
:105378000144B30489006368B400F2406244D24433
:105388004249056182802EC6EFE0FFA6931705010A
:10539800C183A183B2452380F4009307140093F7D7
:1053A800F70F850463F9B700CA9709042380A7009B
:1053B8001374F40F7DBF3E847DBFC16717F5FF1FCF
:1053C800035525C0FD176304F502411117F6FF1FA9
:1053D8000346C6D29385818E06C6EF80800EB24002
:1053E800FD5717F7FF1F231EF7BC410182808280FB
:1053F80009C925151375F50F1335850E13451500C5
:1054080082800145828023900500C9C6797122D423
:1054180026D24ECE52CC5AC806D64AD056CA5EC6F6
:105428003684328AAE892A8B814463F34407B307F2
:10543800940083C70700138914004209939A07014F
:1054480093DA0A011359090163840A04CA9763416C
:10545800FA04B307240183CB07005E85513F0DC9C9
:105468009387FAFF2390F90063906B0313051900E3
:105478002295B250225492540259F249624AD24AB1
:10548800424BB24B45618280D694C204C18071BF41
:105498000145C5B701458280411126C2AE8422C4A8
:1054A80097F7FF1F23A6C7B297F7FF1F23A0B7B22E
:1054B80097F7FF1F23AAA7B02A8441469305F00F48
:1054C80026854AC006C6054997B0FF1FE780003405
:1054D8006310250597F7FF1F938747AE884BC14593
:1054E800513541469305F00F228597B0FF1FE7809D
:1054F800E031854463189502224497F7FF1F93878C
:10550800E7ABB24092440249C847C145410199BD41
:1055180041468145268597B0FF1FE780202FE3127B
:1055280025FD4DBF41468145228597B0FF1FE78085
:10553800E02DE30395FCB240224492440249410124
:105548008280411122C426C22E84AA841306000236
:10555800814517F5FF1F130565A606C697B0FF1FFF
:10556800E780A02097F7FF1FA38B97A497F7FF1F4B
:10557800238887B8EFC08028854719C181474945E6
:10558800B240224417F7FF1F230AF7A292444101B1
:105598008280814781CD19C98547631BF50083C780
:1055A800550093E707FCA382F50085473E85828076
:1055B80089476317F50083C7550093F7F703E5B7E5
:1055C8000D478547E314E5FE03C755001377F70336
:1055D80013670704A382E500D1BF81478DC105C1C8
:1055E80003C755009306000C85471377070C63081B
:1055F800D700930600048D476303D70089473E858B
:105608008280411122C4005D06C626C21DC8AA8434
:10561800085009C597C0FF1FE780607F485009C53B
:1056280097C0FF1FE780A07E085409C597C0FF1FD9
:10563800E780E07D228597C0FF1FE780407D23AC8F
:105648000402B240224492444101828009ED97F756
:10565800FF1F83C7C79617F5FF1F1305A59781CBB3
:105668001385818C828017F5FF1F1305A59682800C
:1056780017F5FF1F0345A594828097F7FF1F9387AF
:10568800E793C847828097F7FF1F93872793884B34
:10569800828097F7FF1F93876792DC4B884382804D
:1056A80097F7FF1F93878791D84B1C4385071CC327
:1056B80017F5FF1F0345B5909307F00F6305F50035
:1056C80091656FE05F9B8280011122CC06CE2E840B
:1056D80032C6EF80C0119147B245631FF50093872A
:1056E800418E9C438DC303A30700630E03002285EC
:1056F8006244F240056102839387C18D9C4381C750
:1057080003A34700DDB7F240624405450561828086
:10571800011122CC2A840355450006CE26CA4AC860
:105728004EC6EF70F06A35C52A898344050083495F
:10573800C500C13D4A85EF80004B03554400EF800A
:10574800400683C7018FB1CB6399970483C5118F36
:105758002685EFF03FA319E12388018E0355440005
:10576800EF80E0089147631FF5000357440097F75F
:10577800FF1F83D707856317F700FD5717F7FF1F2C
:105788002311F784F2406244D2444249B249056188
:10579800828081499304F00F6DB79307F00FE38F70
:1057A800F4FA8346640003564400034524004E87F8
:1057B800A685EFF03FB45DB779715EC6AA8B2E85DA
:1057C80052CC56CA5AC806D622D426D24AD04ECE71
:1057D800AE8A328B368AEF70B05F7DC1045D2A894C
:1057E800E5C09C50614599C3130540039C5481C78B
:1057F80051054205418163050A0071054205418151
:10580800DC5081C7590542054181EFE00FBA2A846F
:1058180045C96146814597B0FF1FE78000F597E9C4
:10582800FF1F83C9A97E6394090083490900930770
:1058380000FD2300F400A947A30074012301F4002C
:10584800230364018C50231254011305840191C968
:1058580008C47146930A440397B0FF1FE78060EDC0
:1058680056858C5491C948C45146930A450197B04E
:10587800FF1FE78000EC5685630C0A0008C87146D4
:10588800D285930AC50197B0FF1FE78080EA568545
:10589800CC5099C548C8594697B0FF1FE78060E9C2
:1058A800A2854E85EFE0EFBB2254B2509254F249E4
:1058B800624AD24A424BB24B4A850259456191B37A
:1058C800B250225492540259F249624AD24A424B87
:1058D800B24B4561828001114EC6AA892E854AC8FD
:1058E80006CE22CC26CA2E89EF70904E21C997E4A5
:1058F800FF1F83C4A47199E0834405001945EFE0B4
:10590800CFAA2A8405CD8145194697B0FF1FE780A5
:10591800C0E5930700FD2300F400B947A300340154
:105928002301F40023122401A2856244F240424973
:10593800B2492685D24405616FE0AFB2F2406244B5
:10594800D2444249B2490561828039715ECEAA8B40
:105958002E8526DA4ED652D456D25AD006DE22DC0E
:105968004AD8AE84328BB68A3A8ABE8942C6EF706C
:10597800304621CD2A894145EFE02FA32A8431C53D
:105988004146814597B0FF1FE78020DE17E5FF1FDE
:105998000345C56719E103450900930700FD230086
:1059A800F400BD472301F400B247A3007401231299
:1059B800940023046401A304540123054401A305AE
:1059C80034015CC4A285EFE0CFA9F2506254D254EE
:1059D8004259B259225A925A025BF24B2161828093
:1059E800797126D2AA8439454AD04ECE06D622D419
:1059F8002EC6B2893689EFE04F9B21C1B245930785
:105A0800000D2310F500B1472A842312B5002301A5
:105A1800F500CE851905194697B0FF1FE78060D1BC
:105A280023062401A2852254B2500259F24913F5E3
:105A3800F40F925445616FE0CFA2B25022549254B1
:105A48000259F2494561828017E7FF1F034737571C
:105A58009307F00F630DF706411126C2AA84394552
:105A680022C406C64AC0EFE04F942A8439C9930776
:105A780000FD2300F500A30095002301050097E52C
:105A8800FF1F938525550D05194697B0FF1FE78021
:105A980040CA17E9FF1F1309695283578900A28575
:105AA80017E5FF1F0345B5512315F4008347190077
:105AB8002306F4002244B2409244024941016FE0B7
:105AC8004F9AB24022449244024941018280828026
